S011000050726F6A6563745F322E73726563AB
S11300000C942A000C9482010C9447000C94470031
S11300100C9447000C9447000C9447000C94470040
S11300200C9447000C9447000C9447000C94470030
S11300300C9447000C9447000C9447000C94470020
S11300400C9447000C9447000C9447000C94470010
S11300500C94470011241FBECFE5D8E0DEBFCDBF0E
S113006010E0A0E6B0E0E0EAF7E002C005900D92EF
S1130070A036B107D9F720E0A0E6B0E001C01D9298
S1130080A738B207E1F70E944E020C94CE030C94F9
S11300900000CF931092840080918500811109C0E3
S11300A060E00E94B00162E081E00E94B00184E15E
S11300B00FC010928600FBCF80918500813019F427
S11300C01092860009C08AEF90E00E942A028C2FC9
S11300D0CFEFC80F8111F0CF60E080E00E94D5011E
S11300E062E081E00E94D501CF910895CF9382E030
S11300F08093840062E080E00E94B00180918500DA
S1130100811105C062E081E00E94B0011AC060E084
S113011081E00E94B0011092860013C08AEF90E043
S11301200E942A02909186008C2F913059F460E04D
S113013081E00E94B00162E081E00E94D50110924A
S1130140860084E1CFEFC80F8111E8CF62E00E94FE
S1130150D50160E081E00E94D50162E081E00E9467
S1130160D501CF910895CF9381E08093840061E01D
S113017080E00E94B00180918500811106C062E098
S113018081E00E94B00184E125C061E081E00E9429
S1130190B00110928600F7CF8AEF90E00E942A0205
S11301A080918600813051F461E00E94B00161E0E9
S11301B080E00E94B00110928600C4E161E080E01A
S11301C00E94F90180918500813019F461E00E9458
S11301D0F9018C2FCFEFC80F8111DECF61E00E94AF
S11301E0D50161E081E00E94D50162E081E00E94D6
S11301F0D501CF910895CF9383E08093840061E08B
S113020080E00E94B00162E081E00E94B001809130
S11302108500813019F461E00E94B00184E114C0CA
S1130220809186008130A1F08AEF90E00E942A023A
S113023061E080E00E94F90180918500813019F429
S113024061E00E94F9018C2FCFEFC80F8111E8CF34
S113025061E080E00E94D50161E081E00E94D50167
S113026062E081E00E94D50180918500813071F4C3
S113027080918300833010F410928500833031F430
S113028080918600811102C010928500CF9108955B
S113029062E083E00E949B011092860062E081E0AC
S11302A00E949F0161E081E00E949F0160E081E083
S11302B00E949F0162E080E00E949F0161E080E073
S11302C00E949F0160E080E00E949F0160E082E064
S11302D00E949F0140E060E081E00E941D021092B4
S11302E08500789485B7836085BF8BB780648BBFA6
S11302F008950E9449000E94B3000E9476000E9463
S1130300FB00F7CF1F920F920FB60F9211248F9319
S113031080918500813049F080918400809383002E
S113032081E080938600809385008F910F900FBEAB
S11303300F901F90189540E00E9455020895E82FF1
S1130340F0E0EE0FFF1FEE0FFF1FEE0FFF1FE05A4E
S1130350FF4FE60FF11D108241E00E9455020895FF
S1130360282F30E0462F50E0F901EE0FFF1FEE0F6B
S1130370FF1FEE0FFF1FE05AFF4FE40FF51F9081A0
S1130380913089F0220F331F220F331F220F331FA6
S1130390205A3F4FF901E40FF51F91E0908341E0AB
S11303A00E94DF02089580E00895282F30E0462F50
S11303B050E0F901EE0FFF1FEE0FFF1FEE0FFF1FBE
S11303C0E05AFF4FE40FF51F9081992381F0220F2B
S11303D0331F220F331F220F331F205A3F4FF901BF
S11303E0E40FF51F108240E00E94DF02089580E0D0
S11303F00895282F30E0E62FF0E0D901AA0FBB1FA3
S1130400AA0FBB1FAA0FBB1FA05ABF4FAE0FBF1F1F
S11304109C91911104C0FD0191E090830BC0220FC7
S1130420331F220F331F220F331F205A3F4FE20F77
S1130430F31F10820E9469030895CF93C62F0E9470
S1130440A303EC2FF0E0E058FF4F81E0808380E0CD
S1130450CF910895CF93BC01C0E00EC02C2F30E0A3
S1130460F901E058FF4F9081913029F4F901E058E7
S1130470FF4F108203C0CF5FC33080F3C33059F005
S11304808C2F0E94A803EC2FF0E0E058FF4F81E08E
S1130490808380E001C083E0CF9108950E944801E9
S11304A00E94790180E090E00895813031F138F0C4
S11304B0823009F440C0833009F45AC076C0411137
S11304C00DC081E090E002C0880F991F6A95E2F7A1
S11304D080959AB389238ABB80E00895413009F05E
S11304E066C081E090E002C0880F991F6A95E2F728
S11304F09AB3892B8ABB80E0089541110DC081E035
S113050090E002C0880F991F6A95E2F7809597B32F
S1130510892387BB80E00895413009F04AC081E017
S113052090E002C0880F991F6A95E2F797B3892B70
S113053087BB80E0089541110DC081E090E002C0C6
S1130540880F991F6A95E2F7809594B3892384BB39
S113055080E00895413079F581E090E002C0880F91
S1130560991F6A95E2F794B3892B84BB80E00895C0
S113057041110DC081E090E002C0880F991F6A9577
S1130580E2F7809591B3892381BB80E008954130DF
S1130590A1F481E090E002C0880F991F6A95E2F708
S11305A091B3892B81BB80E0089581E0089581E0B7
S11305B0089581E0089581E0089581E008958130EF
S11305C031F138F0823009F440C0833009F45AC064
S11305D076C041110DC081E090E002C0880F991FE0
S11305E06A95E2F780959BB389238BBB80E00895DD
S11305F0413009F066C081E090E002C0880F991F85
S11306006A95E2F79BB3892B8BBB80E00895411177
S11306100DC081E090E002C0880F991F6A95E2F74F
S1130620809598B3892388BB80E00895413009F010
S11306304AC081E090E002C0880F991F6A95E2F7F2
S113064098B3892B88BB80E0089541110DC081E0E7
S113065090E002C0880F991F6A95E2F7809595B3E0
S1130660892385BB80E00895413079F581E090E0ED
S113067002C0880F991F6A95E2F795B3892B85BB51
S113068080E0089541110DC081E090E002C0880F20
S1130690991F6A95E2F7809592B3892382BB80E023
S11306A008954130A1F481E090E002C0880F991FC1
S11306B06A95E2F792B3892B82BB80E0089581E0CA
S11306C0089581E0089581E0089581E0089581E02E
S11306D00895813091F028F08230D9F0833029F1E7
S11306E030C081E090E002C0880F991F6A95E2F75C
S11306F09BB389278BBB80E0089581E090E002C022
S1130700880F991F6A95E2F798B3892788BB80E020
S1130710089581E090E002C0880F991F6A95E2F77E
S113072095B3892785BB80E0089581E090E002C0FD
S1130730880F991F6A95E2F792B3892782BB80E0FC
S1130740089581E00895611102C013BE12BE089598
S11307506115710511F1272F3327962F21153105C6
S113076079F085E083BF08C008B600FEFDCF88B7E6
S1130770816088BF2150310921153105A9F713BEC5
S1130780992359F0619562BF85E083BF08B600FEE6
S1130790FDCF88B7816088BF13BE0895F894FFCF5A
S9030000FC
